S012000053414D33585F546573742E73726563A7
S2140800007808002065010800610108006101080001
S2140800106101080061010800610108000000000095
S2140800200000000000000000000000006101080059
S2140800306101080000000000610108006101080075
S21408004061010800610108006101080061010800FB
S21408005061010800610108006101080061010800EB
S2140800606101080061010800000000006101080045
S2140800706101080061010800610108000000000035
S2140800800000000061010800610108006101080025
S21408009061010800610108006101080061010800AB
S2140800A06101080000000000610108006101080005
S2140800B0610108006101080061010800610108008B
S2140800C0610108006101080061010800610108007B
S2140800D0610108006101080061010800610108006B
S2140800E0610108006101080061010800610108005B
S2140800F06101080010B5054C237833B9044B13B1D9
S2140801000448AFF300800123237010BD3404002098
S21408011000000000A40808000C4B43B10C4810B5BA
S2140801200C49AFF300800C48036823B910BD0A4891
S214080130036833B97047094B002BF7D0BDE8104069
S2140801401847064B002BF5D0184700BF00000000E4
S214080150A408080038040020A408080000000000CE
S214080160FEE7000008B5114B114A9A4209D00F4B1A
S2140801700F4A03E011681960043304320D498B42B4
S214080180F8D30D4B02E000221A6004330B4A934260
S214080190F9D30B4B23F0604323F07F03094A93609F
S2140801A0094B9847094B9847FEE700BF0000002018
S2140801B0A408080034040020340400207404002036
S2140801C00000080000ED00E00D070800D90308004D
S2140801D04FF48063204A136002F5007213601F4BC9
S2140801E01B6A13F0807F07D11D4A1C4B1A621B4BF3
S2140801F09B6E13F0010FFAD01A4A184B1A62174B67
S2140802009B6E13F4803FFAD0144A136B23F0030353
S21408021043F001031363114B9B6E13F0080FFAD0DB
S214080220114A0E4B9A620D4B9B6E13F0020FFAD0D2
S21408023011220A4B1A63094B9B6E13F0080FFAD06B
S2140802401222064B1A63054B9B6E13F0080FFAD062
S214080250064A074B1A607047000A0E4000060E4012
S2140802600908370009083701033F272000BD0105A4
S214080270000000203E4B1B6B03F00303032B3FD804
S214080280DFE803F002112D2D3A4B5B6913F0800F5F
S21408029004D04FF40042384B1A6031E04FF4FA426B
S2140802A0354B1A602CE0324B1B6A13F0807F03D064
S2140802B0324A314B1A6023E0314A2F4B1A602C4BD6
S2140802C01B6A03F07003102B05D0202B18D12B4A7D
S2140802D0294B1A6014E02B4A274B1A6010E0244B6F
S2140802E01B6A13F0807F1AD0244A234B1A60204BCF
S2140802F01B6B03F00303022B24D0234A1E4B1A6001
S2140803001B4B1B6B03F07003702B29D0184B1A6B12
S214080310C2F3021218490B68D3400B607047184A9C
S214080320154B1A60124B1B6A03F07003102B05D08E
S214080330202BDCD1114A104B1A60D8E7114A0E4B15
S2140803401A60D4E70A48826AC2F30A420A490B6866
S21408035002FB0333826AD2B2B3FBF2F30B60CFE739
S214080360054A13680949A1FB03135B081360704725
S21408037000060E40101A0E4000000020001BB700B2
S21408038000093D0000127A00001C4E0EABAAAAAA6D
S214080390836BCB4013F0010F04D1012303FA01F15C
S2140803A001637047012303FA01F14163704782B085
S2140803B00023019342F21073984200D9184641F67A
S2140803C00A2303FB00F002E0019B01330193019B23
S2140803D09842F9D202B0704700B583B00023019363
S2140803E0084B9847084B9847084B9847084B984738
S2140803F04FF47A70074B98471B210748074B9847D6
S214080400F6E700BFD101080075020800A10608003B
S214080410D5060800AF03080000100E409103080038
S21408042030B482B06FF00104C1F8E4408C680194DF
S214080430019CD44004F001040194019C84F001045A
S21408044004F001040194019C04B1FEE7A3B90C680A
S214080450012595402C430C608C680194019CD4407F
S21408046004F001040194019C84F0010404F00104E2
S2140804700194019CE4B1FEE74C68012595402C43A5
S2140804804C608C68D44004F001040194019C04B1CB
S214080490FEE7012B05D10C6F6FF0010595402C4047
S2140804A00C67022B04D10C6F012595402C430C6772
S2140804B060B14C69012595402C434C618C69D44049
S2140804C004F001040194019C8CB1FEE70C69012537
S2140804D095402C430C618C69D4400194019C84F0AF
S2140804E0010404F001040194019C04B1FEE70C6ABF
S2140804F0D44004F001040194019C04B1FEE780F0A6
S2140805000100002B14BF002300F00103A3B1D1F8AB
S214080510A000012494402043C1F8A000D1F8A810F8
S21408052021FA02F202F001020192019A12F0010F7A
S21408053000D0002303B1FEE702B030BC70470000CD
S21408054010B50C4B6FF00102C3F8E4201A6942F4A8
S21408055000621A611A6942F480521A6100231B224B
S21408056005491846054CA04700230F2204490120D8
S214080570A04710BD00060E4000100E4021040800DB
S214080580000E0E4038B50B4B6FF00102C3F8E4209E
S2140805901A6942F400321A61074D01230B222946D4
S2140805A00020064CA04701230A2229461846A047E1
S2140805B038BD00BF00060E40000E0E40210408009D
S2140805C038B50B4B6FF00102C3F8E4201A6942F401
S2140805D080021A61074D0123122229460020064C84
S2140805E0A0470123112229460020A04738BD00BF96
S2140805F000060E40000E0E402104080038B50D4BCC
S2140806006FF00102C3F8E4201A6942F080721A619A
S214080610094D01231B2229460020084CA047012328
S2140806201A2229460020A0470123192229461846DF
S214080630A04738BD00060E40000E0E4021040800F4
S21408064010B5084B6FF00102C3F8E4201A6942F0AF
S21408065020021A610323022203490120034CA04703
S21408066010BD00BF00060E40000E0E402104080014
S21408067010B5084B6FF00102C3F8E4201A6942F07F
S21408068040021A610323102203490020034CA047A6
S21408069010BD00BF00060E4000100E4021040800E2
S2140806A008B5064B9847064B9847064B9847064B9F
S2140806B09847064B9847064B984708BD41050800DB
S2140806C085050800C1050800FD0508004106080064
S2140806D0710608000A4B6FF00102C3F8E4201A6995
S2140806E042F480021A61074B074A1A611A6842F0F8
S2140806F020021A601A6842F004021A60704700BFA7
S21408070000060E4000C008403030010070B50F4E9D
S2140807100F4D761BB61018BF002405D0013455F8C7
S214080720043B9847A642F9D10A4E0B4D00F0A8F8AC
S214080730761BB61018BF002406D0013455F8043BC3
S2140807409847A642F9D170BD70BD00BF8C08080056
S2140807508C080800940808008C080800024B13B19F
S214080760024800F005B87047000000007D07080042
S214080770002301461A46184600F01EB838B50A4C3B
S2140807800A4D641BA4100AD004F18043013B05EB14
S2140807908305013C55F804399847002CF9D1BDE883
S2140807A0384000F077B800BFA4080800A008080082
S2140807B0704700BF704700BF2DE9F8432C4D06462A
S2140807C0286898460F469146FFF7F2FF294B1C68A3
S2140807D0D4F84831002B3ED05A681F2A1CDC02F198
S2140807E0010E76B1012103EB8204C4F88890D3F891
S2140807F0880191400843022EC3F88801C4F808818E
S21408080023D00232C3F804E0286843F82270FFF7C2
S214080810D1FF0020BDE8F883174B0BB34FF4C87020
S214080820AFF300800346D8B10020D4F848114FF043
S214080830010E586019600246C4F84831C3F88801AA
S214080840C3F88C01002EDCD0CCE7D3F88C0101432A
S214080850C3F88C11D5E704F5A673C4F84831BBE78E
S2140808602868FFF7A7FF4FF0FF30BDE8F88300BF02
S214080870300400207C080800000000000800002063
S214080880F8B500BFF8BC08BC9E4670475D07080070
S21408089019010800F8B500BFF8BC08BC9E467047AA
S2080808A0F50008004A
S2140808A400093D000000000000000000F4020020DB
S2140808B45C030020C40300200000000000000000C1
S2140808C40000000000000000000000000000000017
S2140808D40000000000000000000000000000000007
S2140808E400000000000000000000000000000000F7
S2140808F400000000000000000000000000000000E7
S21408090400000000000000000000000000000000D6
S21408091400000000000000000000000000000000C6
S21408092400000000000000000000000000000000B6
S21408093400000000000000000000000000000000A6
S2140809440000000000000000000000000000000096
S21408095401000000000000000E33CDAB34126DE633
S214080964ECDE05000B00000000000000000000009C
S2140809740000000000000000000000000000000066
S2140809840000000000000000000000000000000056
S2140809940000000000000000000000000000000046
S2140809A40000000000000000000000000000000036
S208080CD4500400209B
S804080000F3
