:0200000280007C
:1000000090080020650108006101080061010800F6
:1000100061010800610108006101080000000000A2
:100020000000000000000000000000006101080066
:100030006101080000000000610108006101080082
:100040006101080061010800610108006101080008
:1000500061010800610108006101080061010800F8
:1000600061010800000000000000000061010800BC
:100070006101080000000000000000000000000016
:100080000000000061010800610108006101080032
:100090000000000061010800610108006101080022
:1000A0006101080000000000610108006101080012
:1000B0006101080061010800610108006101080098
:1000C00061010800000000000000000000000000C6
:1000D0006101080061010800610108006101080078
:1000E00061010800610108000000000061010800D2
:1000F0006101080010B5054C237833B9044B13B1E6
:100100000448AFF300800123237010BD34040020A5
:1001100000000000AC0A08000C4B43B10C4810B5BD
:100120000C49AFF300800C48036823B910BD0A489E
:10013000036833B97047094B002BF7D0BDE8104076
:100140001847064B002BF5D0184700BF00000000F1
:10015000AC0A080038040020AC0A080000000000C7
:10016000FEE7000008B5114B114A9A4209D00F4B27
:100170000F4A03E011681960043304320D498B42C1
:10018000F8D30D4B02E000221A6004330B4A93426D
:10019000F9D30B4B23F0604323F07F03094A9360AC
:1001A000094B9847094B9847FEE700BF0000002025
:1001B000AC0A08003404002034040020900400201D
:1001C0000000080000ED00E015090800DD0308004C
:1001D0004FF48063204A136002F5007213601F4BD6
:1001E0001B6A13F0807F07D11D4A1C4B1A621B4B00
:1001F0009B6E13F0010FFAD01A4A184B1A62174B74
:100200009B6E13F4803FFAD0144A136B23F0030360
:1002100043F001031363114B9B6E13F0080FFAD0E8
:10022000114A0E4B9A620D4B9B6E13F0020FFAD0DF
:1002300011220A4B1A63094B9B6E13F0080FFAD078
:100240001222064B1A63054B9B6E13F0080FFAD06F
:10025000064A074B1A607047000A0E4000060E401F
:100260000908370009083701013F092000B4C40418
:1002700000000020836B4A1ED34013F0010F04D10D
:10028000012303FA01F101637047012303FA01F12D
:100290004163704730B4B2EB011F17D3102401FB48
:1002A00004F14B0803EBC202B2FBF1F2D3085D1E6E
:1002B0004FF6FE718D4210D8082C09D0120402F4BA
:1002C000E0221A430262002030BC70470824E6E7AF
:1002D000416841F400214160F0E70120F4E7402348
:1002E00003607047882303607047102303607047E2
:1002F000242303607047816070474FF4807303606C
:1003000070474FF40023036070470000014BC0F8B2
:10031000E43070470041535510B50446094B9847E7
:10032000002363606362A3622046074B9847204620
:10033000064B98472046064B98472046054B984762
:1003400010BD00BF0D030800E5020800F10208001F
:10035000FB0208000303080070B505460C4616466C
:10036000104B98470022104B1A60B4B132462168F6
:1003700028460E4B9847024688B96368A1680B432C
:1003800021690B43E1680B430749086803430B608D
:1003900069680B436B60104670BD0122FBE70122C8
:1003A000F9E700BF19030800500400209502080077
:1003B00043F26D43984200D91846064B03FB00F008
:1003C00002E05B00044A1360034B1B689842F8D2BA
:1003D000704700BF007102006804002008B50F4B91
:1003E00098470F4B98470F4B98470F4B98470F4B29
:1003F00098470F4B98470F4B98470F4B98470F4B19
:10040000984764200E4DA8471A210E480E4CA0476D
:100410006420A8470F210D48A047F2E7D10108004A
:1004200041070800A5080800B90708006908080086
:10043000010808005104080089040800FD070800AD
:10044000B103080000100E4075020800000E0E40B7
:100450000B4A136943F0200313610A4B5A6822F4D4
:100460007F425A605A6842F41F425A605A6922F029
:10047000FF025A611A6942F001021A61704700BF17
:1004800000060E4000000C400D4A136943F0400383
:1004900013610C4B5A6842F480325A605A6942F038
:1004A00001025A611A6942F002021A611A6A6FEA7D
:1004B000D2326FEAC2321A621B6B024B1B6BFCE733
:1004C00000060E4000800C4048680123934020EA5B
:1004D000030048600A6813430B608B68FEE7000066
:1004E00010B51A2204490020044CA0470F220449E9
:1004F0000120A04710BD00BF00100E40C904080035
:10050000000E0E401C4B1A6822F400621A601A6832
:1005100022F480621A605A6822F400625A605A68B3
:1005200042F400625A605A6822F480625A605A6843
:1005300042F480625A609A689B68C3F3802312F485
:10054000007F00D103B1FEE70B4B1A6922F48062F1
:100550001A615A6922F480625A615A6942F48062CF
:100560005A611A6922F400621A611A6942F400623F
:100570001A619A699B69FEE7000E0E401C4B1A68CF
:1005800022F400621A601A6822F480621A605A68C3
:1005900022F400625A605A6842F400625A605A6853
:1005A00022F480625A605A6842F480625A609A6803
:1005B0009B68C3F3802312F4007F00D103B1FEE7F0
:1005C0000B4B1A6922F480621A615A6922F4806224
:1005D0005A615A6942F480625A611A6922F40062CF
:1005E0001A611A6942F400621A619A699B69FEE70E
:1005F000000E0E40294B1A6822F000621A601A6839
:1006000022F080621A601A6822F000721A605A683A
:1006100022F000625A605A6842F000625A605A68DA
:1006200022F080625A605A6842F080625A605A68CA
:1006300022F000725A605A6842F000725A6099685B
:100640009A68C2F340629B68C3F3006311F0806F45
:1006500001D102B903B1FEE7104B1A6922F0006222
:100660001A611A6942F000621A611A6922F0806206
:100670001A611A6942F080621A611A6922F00072E6
:100680001A615A6922F000725A615A6942F0007286
:100690005A619A699A699B69FEE700BF000E0E4095
:1006A000124B1A6822F004021A605A6822F00402FF
:1006B0005A605A6842F004025A609B6813F0020FB5
:1006C00000D0FEE7094B1A6922F004021A615A6948
:1006D00022F004025A615A6942F004025A619B698D
:1006E00013F0020F00D0FEE7704700BF000E0E406F
:1006F000124B1A6822F480321A605A6822F480324F
:100700005A605A6842F480325A609B6813F4004F72
:1007100000D0FEE7094B1A6922F480321A615A6947
:1007200022F480325A615A6942F480325A619B69DC
:1007300013F4004F00D0FEE7704700BF00100E40DA
:1007400008B5154BD3F8E42022F00102C3F8E420E9
:100750001A6942F400621A611A6942F480521A61FD
:100760000E4AD2F8E43023F00103C2F8E430A2F5D7
:100770000072D2F8E43023F00103C2F8E430084BF1
:100780009847084B9847084B9847084B9847084BA1
:100790009847084B984708BD00060E4000100E40D1
:1007A000E1040800050508007D050800F5050800BE
:1007B000A1060800F10608000C4BD3F8E42022F053
:1007C0000102C3F8E4201A6942F010021A61084BD2
:1007D000084A1A605A6822F008025A605A6842F0C1
:1007E00008025A60044A1A62704700BF00060E40B1
:1007F00000400940010A010A080002007047000099
:10080000174A136943F080731361164B5A6B22F435
:100810007F425A635A6B42F480525A635A6842F0DC
:1008200001025A605A6B42F008025A635A6822F079
:1008300002025A605A6842F470225A605A6822F0E2
:100840007F425A605A6842F0C0625A605A6822F485
:1008500070225A605A6842F450225A60704700BFB2
:1008600000060E40008000400B4BD3F8E42022F03D
:100870000102C3F8E4201A6942F480021A61074BAE
:10088000074A1A611A6842F020021A601A6842F098
:1008900008021A60704700BF00060E4000C0084002
:1008A0003030010010B586B0002303930493059304
:1008B0004FF4E1330093C02301934FF4006302939C
:1008C0000D4C636823F030036360636863600B4A18
:1008D000694620460A4B984720460A4B98472046CF
:1008E000094B984701212046084B98474FF48072E6
:1008F000074B1A6006B010BD0080094000B4C40464
:1009000059030800DF020800EB020800F7020800A4
:1009100000E100E070B50F4E0F4D761BB61018BF0A
:10092000002405D0013455F8043B9847A642F9D17C
:100930000A4E0B4D00F0A8F8761BB61018BF002425
:1009400006D0013455F8043B9847A642F9D170BD52
:1009500070BD00BF940A0800940A08009C0A0800B1
:10096000940A0800024B13B1024800F005B8704722
:100970000000000085090800002301461A461846B9
:1009800000F01EB838B50A4C0A4D641BA4100AD0FA
:1009900004F18043013B05EB8305013C55F8043924
:1009A0009847002CF9D1BDE8384000F077B800BF77
:1009B000AC0A0800A80A0800704700BF704700BFD3
:1009C0002DE9F8432C4D0646286898460F46914677
:1009D000FFF7F2FF294B1C68D4F84831002B3ED0BA
:1009E0005A681F2A1CDC02F1010E76B1012103EBCB
:1009F0008204C4F88890D3F8880191400843022EFD
:100A0000C3F88801C4F8088123D00232C3F804E097
:100A1000286843F82270FFF7D1FF0020BDE8F88373
:100A2000174B0BB34FF4C870AFF300800346D8B137
:100A30000020D4F848114FF0010E586019600246AA
:100A4000C4F84831C3F88801C3F88C01002EDCD00B
:100A5000CCE7D3F88C010143C3F88C11D5E704F53A
:100A6000A673C4F84831BBE72868FFF7A7FF4FF02B
:100A7000FF30BDE8F88300BF30040020840A08007E
:100A80000000000008000020F8B500BFF8BC08BC5A
:100A90009E4670476509080019010800F8B500BFB7
:0C0AA000F8BC08BC9E467047F50008003A
:100AAC0000093D000000000000000000F4020020DE
:100ABC005C030020C40300200000000000000000C4
:100ACC00000000000000000000000000000000001A
:100ADC00000000000000000000000000000000000A
:100AEC0000000000000000000000000000000000FA
:100AFC0000000000000000000000000000000000EA
:100B0C0000000000000000000000000000000000D9
:100B1C0000000000000000000000000000000000C9
:100B2C0000000000000000000000000000000000B9
:100B3C0000000000000000000000000000000000A9
:100B4C000000000000000000000000000000000099
:100B5C0001000000000000000E33CDAB34126DE636
:100B6C00ECDE05000B00000000000000000000009F
:100B7C000000000000000000000000000000000069
:100B8C000000000000000000000000000000000059
:100B9C000000000000000000000000000000000049
:100BAC000000000000000000000000000000000039
:040EDC006C04002082
:040000038000000079
:00000001FF
