S012000053414D33585F546573742E73726563A7
S2140800007808002065010800610108006101080001
S2140800106101080061010800610108000000000095
S2140800200000000000000000000000006101080059
S2140800306101080000000000610108006101080075
S21408004061010800610108006101080061010800FB
S21408005061010800610108006101080061010800EB
S2140800606101080061010800000000006101080045
S2140800706101080061010800610108000000000035
S2140800800000000061010800610108006101080025
S21408009061010800610108006101080061010800AB
S2140800A06101080000000000610108006101080005
S2140800B0610108006101080061010800610108008B
S2140800C0610108006101080061010800610108007B
S2140800D0610108006101080061010800610108006B
S2140800E0610108006101080061010800610108005B
S2140800F06101080010B5054C237833B9044B13B1D9
S2140801000448AFF300800123237010BD3404002098
S21408011000000000CC0B08000C4B43B10C4810B58F
S2140801200C49AFF300800C48036823B910BD0A4891
S214080130036833B97047094B002BF7D0BDE8104069
S2140801401847064B002BF5D0184700BF00000000E4
S214080150CC0B080038040020CC0B08000000000078
S214080160FEE7000008B5114B114A9A4209D00F4B1A
S2140801700F4A03E011681960043304320D498B42B4
S214080180F8D30D4B02E000221A6004330B4A934260
S214080190F9D30B4B23F0604323F07F03094A93609F
S2140801A0094B9847094B9847FEE700BF0000002018
S2140801B0CC0B08003404002034040020740400200B
S2140801C00000080000ED00E0350A08001D040800DD
S2140801D04FF48063204A136002F5007213601F4BC9
S2140801E01B6A13F0807F07D11D4A1C4B1A621B4BF3
S2140801F09B6E13F0010FFAD01A4A184B1A62174B67
S2140802009B6E13F4803FFAD0144A136B23F0030353
S21408021043F001031363114B9B6E13F0080FFAD0DB
S214080220114A0E4B9A620D4B9B6E13F0020FFAD0D2
S21408023011220A4B1A63094B9B6E13F0080FFAD06B
S2140802401222064B1A63054B9B6E13F0080FFAD062
S214080250064A074B1A607047000A0E4000060E4012
S2140802600908370009083701033F272000BD0105A4
S214080270000000203E4B1B6B03F00303032B3FD804
S214080280DFE803F002112D2D3A4B5B6913F0800F5F
S21408029004D04FF40042384B1A6031E04FF4FA426B
S2140802A0354B1A602CE0324B1B6A13F0807F03D064
S2140802B0324A314B1A6023E0314A2F4B1A602C4BD6
S2140802C01B6A03F07003102B05D0202B18D12B4A7D
S2140802D0294B1A6014E02B4A274B1A6010E0244B6F
S2140802E01B6A13F0807F1AD0244A234B1A60204BCF
S2140802F01B6B03F00303022B24D0234A1E4B1A6001
S2140803001B4B1B6B03F07003702B29D0184B1A6B12
S214080310C2F3021218490B68D3400B607047184A9C
S214080320154B1A60124B1B6A03F07003102B05D08E
S214080330202BDCD1114A104B1A60D8E7114A0E4B15
S2140803401A60D4E70A48826AC2F30A420A490B6866
S21408035002FB0333826AD2B2B3FBF2F30B60CFE739
S214080360054A13680949A1FB03135B081360704725
S21408037000060E40101A0E4000000020001BB700B2
S21408038000093D0000127A00001C4E0EABAAAAAA6D
S21408039082B0642800D964200D4BDB68C3F30B03D6
S2140803A00193019B03FB00F00A4B83FB0023C01755
S2140803B0C0EB631001908B6803F07F438B60019B52
S2140803C023F07F438A6813438B6002B0704700BFF0
S2140803D0004209401F85EB5182B00F4B1B69C3F3DF
S2140803E040030193019B23B90B4B1B69C3F34003DE
S2140803F00193094BDA6842F0A602DA601B69C3F378
S21408040040030193019B23B9034B1B69C3F34003C5
S214080410019302B0704700BF0080004000B583B06B
S21408042000230193094B9847094B9847094B98476F
S214080430094B9847094B9847094B9847094B9847E3
S214080440094B9847094B9847FCE700BFD1010800BD
S21408045075020800FD07080095090800B50408009D
S214080460710408005108080025090800D903080087
S2140804700E4B6FF00102C3F8E4200D49D1F80021B5
S21408048042F02002C1F800215A6822F47F425A60DE
S2140804905A6842F41F425A605A6922F0FF025A61AB
S2140804A01A6942F001021A61704700BF00000C404A
S2140804B000060E4082B01D4B6FF00102C3F8E42020
S2140804C01B49D1F8002142F04002C1F800215A68C1
S2140804D022F07C525A605A6842F0A8525A605A690A
S2140804E042F001025A611A6942F002021A611B6B55
S2140804F003F001030193019B2BB90C4B1B6B03F014
S21408050001030193F9E7094B1A6A42F07F021A625F
S2140805101B6B03F001030193019B2BB9034B1B6B69
S21408052003F001030193F9E702B0704700800C401E
S21408053000060E4030B482B06FF00104C1F8E44003
S2140805408C680194019CD44004F001040194019C39
S21408055084F0010404F001040194019C04B1FEE750
S214080560A3B90C68012595402C430C608C6801944F
S214080570019CD44004F001040194019C84F0010419
S21408058004F001040194019CE4B1FEE74C680125DF
S21408059095402C434C608C68D44004F001040194C8
S2140805A0019C04B1FEE7012B05D10C6F6FF0010525
S2140805B095402C400C67022B04D10C6F0125954002
S2140805C02C430C6760B14C69012595402C434C615F
S2140805D08C69D44004F001040194019C8CB1FEE7B8
S2140805E00C69012595402C430C618C69D440019414
S2140805F0019C84F0010404F001040194019C04B1F8
S214080600FEE70C6AD44004F001040194019C04B18E
S214080610FEE780F00100002B14BF002300F0010362
S214080620A3B1D1F8A000012494402043C1F8A0004B
S214080630D1F8A81021FA02F202F001020192019AFA
S21408064012F0010F00D0002303B1FEE702B030BC61
S2140806507047000010B50C4B6FF00102C3F8E42099
S2140806601A6942F400621A611A6942F480521A61E1
S21408067000231B2205491846054CA04700230F22D5
S21408068004490120A04710BD00060E4000100E4089
S21408069035050800000E0E4038B50B4B6FF001020A
S2140806A0C3F8E4201A6942F400321A61074D0123A0
S2140806B00B2229460020064CA04701230A22294679
S2140806C01846A04738BD00BF00060E40000E0E4074
S2140806D03505080038B50B4B6FF00102C3F8E42067
S2140806E01A6942F480021A61074D0123122229462C
S2140806F00020064CA0470123112229460020A047C7
S21408070038BD00BF00060E40000E0E403505080036
S21408071038B50D4B6FF00102C3F8E4201A6942F0B1
S21408072010021A6102230F2208490020084CA0472D
S214080730084D0223002229461046A0470223052218
S21408074029460120A04738BD00060E4000100E407E
S21408075035050800000E0E4038B50D4B6FF0010247
S214080760C3F8E4201A6942F080721A61094D012321
S2140807701B2229460020084CA04701231A22294696
S2140807800020A0470123192229461846A04738BD4D
S21408079000060E40000E0E403505080010B5084B42
S2140807A06FF00102C3F8E4201A6942F020021A61C9
S2140807B00323022203490120034CA04710BD00BFB3
S2140807C000060E40000E0E403505080010B5084B12
S2140807D06FF00102C3F8E4201A6942F040021A6179
S2140807E00323102203490020034CA04710BD00BF76
S2140807F000060E4000100E403505080008B5074BE9
S2140808009847074B9847074B9847074B9847074B17
S2140808109847074B9847074B984708BD5506080062
S21408082099060800D5060800590708009D0708001D
S214080830CD07080011070800044BDA6D22F0020203
S214080840DA65DA6E42F00202DA667047004009405E
S21408085070B52E4B6FF00102C3F8E420D3F80021E0
S21408086042F01002C3F80021294C236A23F44033CF
S2140808702362236A2362236A43F002032362236AFD
S21408088043F004032362236A43F008032362636881
S21408089043F001036360636843F0020363606368C0
S2140808A043F004036360636843F008036360194910
S2140808B00B6943F4FA730B610B6823F00F030B60A4
S2140808C00B6843F004030B600B6843F480730B60FB
S2140808D0114D4FF00F12EA612B6843F480332B60FA
S2140808E0CA610B6843F480330B60A36A43F00103C4
S2140808F0A3620A20094EB04729460A20B047A36AD1
S21408090043F00103A362064B984770BD00060E40ED
S214080910004009400042094060420940910308002F
S21408092039080800194A136943F080731361184B95
S2140809301A6842F001021A605A6B22F47F425A6320
S2140809405A6B42F480525A635A6842F001025A605F
S2140809505A6B42F008025A635A6822F002025A603A
S2140809605A6842F470225A605A6822F07F425A60E7
S2140809705A6842F0C0625A605A6822F470225A6076
S2140809805A6842F450225A60704700BF00060E406C
S2140809900080004082B0264B6FF00102C3F8E420C6
S2140809A05A6822F030025A605A685A605A6822F02A
S2140809B00F025A605A685A605A6822F0C0025A6093
S2140809C05A6842F0C0025A605A6822F460625A6056
S2140809D05A6842F400625A601A6A120C12041A62C2
S2140809E01A6A42F02B021A621A6A01921A6842F0D0
S2140809F004021A601A6822F004021A601A6822F0C2
S214080A0020021A601A6842F010021A601A6842F049
S214080A1008021A601A6822F008021A601A6822F099
S214080A2080021A601A6842F040021A6002B07047E4
S214080A300080094070B50F4E0F4D761BB61018BFD4
S214080A40002405D0013455F8043B9847A642F9D14E
S214080A500A4E0B4D00F0A8F8761BB61018BF0024F7
S214080A6006D0013455F8043B9847A642F9D170BD24
S214080A7070BD00BFB40B0800B40B0800BC0B080020
S214080A80B40B0800024B13B1024800F005B87047D3
S214080A9000000000A50A0800002301461A4618466A
S214080AA000F01EB838B50A4C0A4D641BA4100AD0CC
S214080AB004F18043013B05EB8305013C55F80439F6
S214080AC09847002CF9D1BDE8384000F077B800BF49
S214080AD0CC0B0800C80B0800704700BF704700BF63
S214080AE02DE9F8432C4D0646286898460F46914649
S214080AF0FFF7F2FF294B1C68D4F84831002B3ED08C
S214080B005A681F2A1CDC02F1010E76B1012103EB9C
S214080B108204C4F88890D3F8880191400843022ECE
S214080B20C3F88801C4F8088123D00232C3F804E069
S214080B30286843F82270FFF7D1FF0020BDE8F88345
S214080B40174B0BB34FF4C870AFF300800346D8B109
S214080B500020D4F848114FF0010E5860196002467C
S214080B60C4F84831C3F88801C3F88C01002EDCD0DD
S214080B70CCE7D3F88C010143C3F88C11D5E704F50C
S214080B80A673C4F84831BBE72868FFF7A7FF4FF0FD
S214080B90FF30BDE8F88300BF30040020A40B08002F
S214080BA00000000008000020F8B500BFF8BC08BC2C
S214080BB09E467047850A080019010800F8B500BF68
S210080BC0F8BC08BC9E467047F50008000C
S214080BCC00093D000000000000000000F4020020B0
S214080BDC5C030020C4030020000000000000000096
S214080BEC00000000000000000000000000000000EC
S214080BFC00000000000000000000000000000000DC
S214080C0C00000000000000000000000000000000CB
S214080C1C00000000000000000000000000000000BB
S214080C2C00000000000000000000000000000000AB
S214080C3C000000000000000000000000000000009B
S214080C4C000000000000000000000000000000008B
S214080C5C000000000000000000000000000000007B
S214080C6C000000000000000000000000000000006B
S214080C7C01000000000000000E33CDAB34126DE608
S214080C8CECDE05000B000000000000000000000071
S214080C9C000000000000000000000000000000003B
S214080CAC000000000000000000000000000000002B
S214080CBC000000000000000000000000000000001B
S214080CCC000000000000000000000000000000000B
S208080FFC5004002070
S804080000F3
