S012000053414D33585F546573742E73726563A7
S214080000C0A9002065010800610108006101080018
S2140800106101080061010800610108000000000095
S2140800200000000000000000000000004104080076
S2140800306101080000000000C1040800FD04080073
S21408004061010800610108006101080061010800FB
S21408005061010800610108006101080061010800EB
S2140800606101080061010800000000006101080045
S2140800706101080061010800610108000000000035
S2140800800000000061010800610108006101080025
S21408009061010800610108006101080061010800AB
S2140800A06101080000000000610108006101080005
S2140800B0610108006101080061010800610108008B
S2140800C0610108006101080061010800610108007B
S2140800D0610108006101080061010800610108006B
S2140800E0610108006101080061010800610108005B
S2140800F06101080010B5054C237833B9044B13B1D9
S2140801000448AFF300800123237010BD400400208C
S214080110000000003C1708000C4B43B10C4810B513
S2140801200C49AFF300800C48036823B910BD0A4891
S214080130036833B97047094B002BF7D0BDE8104069
S2140801401847064B002BF5D0184700BF00000000E4
S2140801503C170800440400203C1708000000000074
S214080160FEE7000008B5114B114A9A4209D00F4B1A
S2140801700F4A03E011681960043304320D498B42B4
S214080180F8D30D4B02E000221A6004330B4A934260
S214080190F9D30B4B23F0604323F07F03094A93609F
S2140801A0094B9847094B9847FEE700BF0000002018
S2140801B03C1708003C04002040040020C0A500208E
S2140801C00000080000ED00E0991408009D0D0800E6
S2140801D04FF48063204A136002F5007213601F4BC9
S2140801E01B6A13F0807F07D11D4A1C4B1A621B4BF3
S2140801F09B6E13F0010FFAD01A4A184B1A62174B67
S2140802009B6E13F4803FFAD0144A136B23F0030353
S21408021043F001031363114B9B6E13F0080FFAD0DB
S214080220114A0E4B9A620D4B9B6E13F0020FFAD0D2
S21408023011220A4B1A63094B9B6E13F0080FFAD06B
S2140802401222064B1A63054B9B6E13F0080FFAD062
S214080250064A074B1A607047000A0E4000060E4012
S2140802600908370009083701033F272000BD0105A4
S214080270000000203E4B1B6B03F00303032B3FD804
S214080280DFE803F002112D2D3A4B5B6913F0800F5F
S21408029004D04FF40042384B1A6031E04FF4FA426B
S2140802A0354B1A602CE0324B1B6A13F0807F03D064
S2140802B0324A314B1A6023E0314A2F4B1A602C4BD6
S2140802C01B6A03F07003102B05D0202B18D12B4A7D
S2140802D0294B1A6014E02B4A274B1A6010E0244B6F
S2140802E01B6A13F0807F1AD0244A234B1A60204BCF
S2140802F01B6B03F00303022B24D0234A1E4B1A6001
S2140803001B4B1B6B03F07003702B29D0184B1A6B12
S214080310C2F3021218490B68D3400B607047184A9C
S214080320154B1A60124B1B6A03F07003102B05D08E
S214080330202BDCD1114A104B1A60D8E7114A0E4B15
S2140803401A60D4E70A48826AC2F30A420A490B6866
S21408035002FB0333826AD2B2B3FBF2F30B60CFE739
S214080360054A13680949A1FB03135B081360704725
S21408037000060E40101A0E4000000020001BB700B2
S21408038000093D0000127A00001C4E0EABAAAAAA6D
S21408039000F1080343604FF0FF328260C3600361D8
S2140803A000230360704700230361704743685A6858
S2140803B04A6042688A605A6891605960416008617C
S2140803C0036801330360704710B40C68B4F1FF3F4C
S2140803D002D000F1080302E0036904E05B685A688B
S2140803E012689442FAD25A684A6091608B605960E3
S2140803F0086103680133036010BC7047436882686D
S2140804009A60836842685A6003695A68904206D0C0
S214080410002202611A68013A1A60186870478268F2
S2140804205A60F5E74FF0807340F8043C40F8081C23
S214080430002340F80C3C40F8202C40387047000059
S214080440064B19680868B0E8F00F80F309884FF083
S214080450000080F311884EF00D0E70473CA5002072
S2140804604FF08052014B1A60704700BF04ED00E061
S214080470EFF311804FF0A00181F311887047002038
S21408048008B5034B9847034A13680133136008BD41
S214080490710408000400002080F3118870470000EB
S2140804A008B5054A1368013B136003B108BD002070
S2140804B0024B9847FAE700BF04000020990408009A
S2140804C0EFF309800C4B1A6820E9F00F10602DE94D
S2140804D008404FF0A00080F3118800F08DFB4FF025
S2140804E0000080F31188BDE8084019680868B0E87D
S2140804F0F00F80F3098870473CA5002008B54FF038
S2140805008052054B1A60054B9847054B98470020C4
S214080510044B984708BD00BF04ED00E071040800CE
S214080520590908009904080010B40D4B03F1080295
S2140805301A600021596049F6F0700244094CC4F864
S214080540502749F6FC74195149F6F8741951D860C1
S2140805509A60054A1368103B136010BC704700BFCA
S21408056060040020189D00200800002010B4134ADC
S21408057000E01A4613688342FBD351685418A04219
S21408058009D041684418A3420AD00360904200D0BC
S214080590106010BC70474068014451601046F0E790
S2140805A0074CD4F85047A34206D05B68194441600C
S2140805B013681B680360E9E70460E7E76004002047
S2140805C0189D002070B50546224B9847224BD3F855
S2140805D050377BB135B1103515F0070F02D025F02E
S2140805E0070508356A1E49F6FE739A422AD81B4A3A
S2140805F0146804E01A4B9847ECE722461C466368E2
S2140806009D4202D92368002BF7D1134BD3F85037F5
S2140806109C4219D0166810362368136063685B1B03
S214080620202B09D861680F4A13685B1A13600E4BB3
S21408063098475EB1304670BD6019436065600B4BE5
S2140806409847EFE70026F2E70026F0E7084B9847BA
S214080650F0E700BF25090800189D00206004002068
S2140806602905080008000020610A08006D05080032
S214080670590E080088B138B50446A0F11005074B96
S214080680984754F80C1C064A13680B44136028460F
S214080690044B9847044B984738BD7047250908000F
S2140806A0080000206D050800610A080070B50646B7
S2140806B00C464C200B4B9847054638B144B12C6382
S2140806C05CB1B200A5212046074B9847284670BD66
S2140806D0B000044B98470446F1E72846034B984772
S2140806E00025F3E7C5050800E914080075060800A4
S2140806F070B5044615460A2234300B4B984700233B
S21408070084F83D30042D00D90425E562A564201D33
S214080710064EB04704F11800B0472461C5F1050538
S214080720A561646270BD00BF85150800A7030800B0
S214080730F8B50024042C17D90F4C04F16407384682
S2140807400E4DA84704F178063046A84704F18C00F9
S214080750A84704F1A000A84704F1B400A847C4F8C5
S214080760C870C4F8CC60F8BD1420034B00FB0430F6
S214080770024B98470134DDE76CA40020910308007B
S21408078010B5104BD3F8D0205060D3F8D430984228
S2140807900FD304460B4BD3F8C800D3F8D010043157
S2140807A0094B9847094B1B689C4201D2074B1C60B3
S2140807B010BD044BD3F8CC00D3F8D0100431024B4C
S2140807C0984710BD6CA40020C90308000C00002040
S2140807D02DE9F04F83B00C9EDDF8348048B18B4687
S2140807E017469A468146042E07D9444B984700BFB9
S2140807F0FDE7424B984700BFFDE70E991046404B71
S21408080098470446002868D0036B07F18045013DE9
S21408081003EB850323F0070500970F9B32465946DE
S214080820384FB847524649462846374B98472060BF
S21408083010F0070F1DD1B8F1000F01D0C8F800401E
S214080840324B9847324BD3F800210132C3F80021C7
S214080850D3F8D0308BB12E4BD3F80431B3B92C4B28
S214080860D3F8D030DB6A9E4210D3294BC3F8D04069
S2140808700CE0224B984700BFFDE7254BC3F8D04055
S214080880D3F80031012B01D1224B9847E36A204A5E
S214080890D2F80821934202D91D4AC2F808311C49E9
S2140808A0D1F80C2122640132C1F80C21D1F81021AC
S2140808B0934201D9C1F8103103EB83039A00211D36
S2140808C013481044144B9847144B98470124012C9E
S2140808D006D0204603B0BDE8F08F4FF0FF34F6E7A9
S2140808E00B4BD3F80431002BF3D0094BD3F8D03098
S2140808F0DB6A9E42EDD90A4B9847EAE7710408007E
S214080900AD060800F1060800250408008104080062
S2140809106CA4002031070800AD030800A1040800F5
S21408092061040800034AD2F818310133C2F81831B6
S214080930704700BF6CA4002010B5044B9847044BC2
S214080940D3F8D440034B9847204610BD81040800CE
S2140809506CA40020A104080038B53C4BD3F8183125
S214080960002B6CD1394BD3F8D4200132C3F8D420ED
S214080970D3F8D430D3B9354BD3F8C8301B68EBB9A5
S214080980324BD3F8C820D3F8CC10C3F8C810C3F835
S214080990CC20D3F81C210132C3F81C21D3F8C83068
S2140809A01B687BB94FF0FF32294B1A60274BD3F8E8
S2140809B0D420274B1B689A421DD246E0254B984701
S2140809C000BFFDE7214BD3F8C830DB68DB685A6800
S2140809D01F4B1A60EAE74FF0FF321D4B1A6038BD0E
S2140809E01B4B1A6038BD03EB83039A002946174849
S2140809F01044194B9847154BD3F8C8301B68002B82
S214080A00E9D0124BD3F8C820D268D4686268D3F805
S214080A10D4309A42E4D8251D2846104B9847A36A36
S214080A201BB104F118000D4B9847E36A074AD2F841
S214080A3010219342D7D9054AC2F81031D3E7034AA2
S214080A40D2F820310133C2F8203138BD6CA400201A
S214080A500C00002071040800AD030800FD03080020
S214080A602DE9F041344BD3F818311BB9334B98476E
S214080A7000BFFDE7324B98472F4BD3F81821013AB1
S214080A80C3F81821D3F81831002B52D12A4BD3F8C3
S214080A9000313BB30024284BD3F88C3043B3264EA2
S214080AA0D6F89830DD6805F11800DFF8A880C0474A
S214080AB02F1D3846C047EB6AD6F81021934201D955
S214080AC0C6F810311C4E03EB8303980039463044B1
S214080AD01C4B9847EA6AD6F8D030DB6A9A42DAD3D3
S214080AE00124D8E70024184B98472046BDE8F08133
S214080AF0114BD3F82031ABB924B90F4BD3F82431B6
S214080B00012BF0D100220C4BC3F824210F4B984739
S214080B100124E8E70E4B9847074AD2F82031013BF4
S214080B20C2F82031044BD3F82031002BF2D101242F
S214080B30E2E70024D7E700BF6CA400207104080091
S214080B4081040800AD030800A10408006104080039
S214080B5059090800FD03080038B530B10C460546AB
S214080B6039B91E4B984700BFFDE71C4B984700BF96
S214080B70FDE71B4B98472B681C441A4AD2F8D4202A
S214080B8093420DD9A34214D9164BD3F8D4309C42BD
S214080B9011D800232C60A3B9134B9847D8B138BD99
S214080BA0A3420AD80F4BD3F8D4309C4207D8002368
S214080BB0F0E70023EEE70123ECE70123EAE7012349
S214080BC0E8E7084BD3F8D0000430084B984720468F
S214080BD0074B9847E0E7074B9847E0E7710408009B
S214080BE0250908006CA40020610A0800FD03080017
S214080BF08107080061040800204BD3F818319BB918
S214080C0010B51E49D1F8103103EB83039A008B58B0
S214080C109BB91A4BD3F810315BB1184AD2F8103189
S214080C20013BC2F81031ECE70122144BC3F824212B
S214080C307047134B984700BFFDE70A46D1F81031B6
S214080C409900CC18A00010444468646844601944AD
S214080C508800014608300244944209D0074903EB4D
S214080C6083039A000A445368DB68C1F8D03010BD85
S214080C706068024A0A445060F0E700BF6CA400208F
S214080C8071040800836BCB4013F0010F04D10123D5
S214080C9003FA01F101637047012303FA01F1416386
S214080CA07047000082B0642800D964200D4BDB68CA
S214080CB0C3F30B030193019B03FB00F00A4B83FB72
S214080CC00023C017C0EB631001908B6803F07F43C6
S214080CD08B60019B23F07F438A6813438B6002B0C6
S214080CE0704700BF004209401F85EB5110B483B01F
S214080CF000221AE0124B1B69C3F340030193019BC1
S214080D00002BF7D00E4BD9682143D9601B69C3F373
S214080D104003019304E00A4B1B69C3F340030193A5
S214080D20019B002BF7D00132D2B2845C2CB1044B65
S214080D301B69C3F340030193E1E703B010BC704797
S214080D400080004000B583B0054B98470190962177
S214080D5001A8044B984710210348044B9847F6E728
S214080D6039090800590B0800000E0E40850C0800CB
S214080D7000B583B0054B98470190642101A8044B41
S214080D80984718210348044B9847F6E7390908009E
S214080D90590B0800000E0E40850C080000B587B0F9
S214080DA0002405941C4B98471C4B98471C4B9847A7
S214080DB01C4B98471C4B98471C4B98471C4B98470E
S214080DC01C4B98471C4B9847039402941B4B019363
S214080DD001230093234640F2122221461848194D53
S214080DE0A84703940294184B0193022300932346C2
S214080DF040F2122221461548A84709E0059B013310
S214080E000593059BB3F5FA7FF8D91148114B984717
S214080E1000230593F5E700BFD10108007502080016
S214080E2001120800B9130800F9130800A10E0800FB
S214080E305D0E0800551208002913080094A5002026
S214080E40710D0800D107080098A50020450D080078
S214080E5008170800ED0C0800FEE700000E4B6FF0C0
S214080E600102C3F8E4200D49D1F8002142F020021F
S214080E70C1F800215A6822F47F425A605A6842F440
S214080E801F425A605A6922F0FF025A611A6942F0F4
S214080E9001021A61704700BF00000C4000060E40B1
S214080EA082B01D4B6FF00102C3F8E4201B49D1F84D
S214080EB0002142F04002C1F800215A6822F07C5214
S214080EC05A605A6842F0A8525A605A6942F00102BB
S214080ED05A611A6942F002021A611B6B03F0010399
S214080EE00193019B2BB90C4B1B6B03F00103019379
S214080EF0F9E7094B1A6A42F07F021A621B6B03F085
S214080F0001030193019B2BB9034B1B6B03F00103F1
S214080F100193F9E702B0704700800C4000060E40C7
S214080F2030B482B06FF00104C1F8E4408C680194D4
S214080F30019CD44004F001040194019C84F001044F
S214080F4004F001040194019C04B1FEE7A3B90C68FF
S214080F50012595402C430C608C680194019CD44074
S214080F6004F001040194019C84F0010404F00104D7
S214080F700194019CE4B1FEE74C68012595402C439A
S214080F804C608C68D44004F001040194019C04B1C0
S214080F90FEE7012B05D10C6F6FF0010595402C403C
S214080FA00C67022B04D10C6F012595402C430C6767
S214080FB060B14C69012595402C434C618C69D4403E
S214080FC004F001040194019C8CB1FEE70C6901252C
S214080FD095402C430C618C69D4400194019C84F0A4
S214080FE0010404F001040194019C04B1FEE70C6AB4
S214080FF0D44004F001040194019C04B1FEE780F09B
S2140810000100002B14BF002300F00103A3B1D1F8A0
S214081010A000012494402043C1F8A000D1F8A810ED
S21408102021FA02F202F001020192019A12F0010F6F
S21408103000D0002303B1FEE702B030BC70470000C2
S21408104038B5124B6FF00102C3F8E4201A6942F46F
S21408105000621A611A6942F480521A6100231A2241
S2140810600B4918460B4CA0470B4D00230F22294668
S2140810701846A0470023102229461846A0470023F2
S214081080182229461846A04738BD00BF00060E405D
S21408109000100E40210F0800000E0E4038B50B4B0E
S2140810A06FF00102C3F8E4201A6942F400321A61AC
S2140810B0074D01230B2229460020064CA047012392
S2140810C00A2229461846A04738BD00BF00060E402B
S2140810D0000E0E40210F080038B50B4B6FF00102CA
S2140810E0C3F8E4201A6942F480021A61074D012306
S2140810F0122229460020064CA04701231122294621
S2140811000020A04738BD00BF00060E40000E0E4067
S214081110210F080038B50D4B6FF00102C3F8E42024
S2140811201A6942F010021A6102230F2208490020A9
S214081130084CA047084D0223002229461046A0471F
S2140811400223052229460120A04738BD00060E4086
S21408115000100E40210F0800000E0E4038B50D4B4B
S2140811606FF00102C3F8E4201A6942F080721A612F
S214081170094D01231B2229460020084CA0470123BD
S2140811801A2229460020A047012319222946184674
S214081190A04738BD00060E40000E0E40210F08007E
S2140811A010B5084B6FF00102C3F8E4201A6942F044
S2140811B020021A610323022203490120034CA04798
S2140811C010BD00BF00060E40000E0E40210F08009E
S2140811D010B5084B6FF00102C3F8E4201A6942F014
S2140811E040021A610323102203490020034CA0473B
S2140811F010BD00BF00060E4000100E40210F08006C
S21408120008B5074B9847074B9847074B9847074B2F
S2140812109847074B9847074B9847074B984708BD8A
S214081220411008009D100800D91008005D1108003C
S214081230A1110800D111080015110800044BDA6D39
S21408124022F00202DA65DA6E42F00202DA667047C7
S2140812500040094070B52E4B6FF00102C3F8E42039
S214081260D3F8002142F01002C3F80021294C236A63
S21408127023F440332362236A2362236A43F002037B
S2140812802362236A43F004032362236A43F00803B5
S2140812902362636843F001036360636843F00203F4
S2140812A06360636843F004036360636843F008039D
S2140812B0636019490B6943F4FA730B610B6823F0F2
S2140812C00F030B600B6843F004030B600B6843F4D2
S2140812D080730B60114D4FF00F12EA612B6843F4D0
S2140812E080332B60CA610B6843F480330B60A36AB3
S2140812F043F00103A3620A20094EB04729460A2094
S214081300B047A36A43F00103A362064B984770BD33
S21408131000060E400040094000420940604209406D
S214081320A50C08003D120800194A136943F080739B
S2140813301361184B1A6842F001021A605A6B22F4BD
S2140813407F425A635A6B42F480525A635A6842F094
S21408135001025A605A6B42F008025A635A6822F031
S21408136002025A605A6842F470225A605A6822F09A
S2140813707F425A605A6842F0C0625A605A6822F43D
S21408138070225A605A6842F450225A60704700BF6A
S21408139000060E4000800040064B5A6842F4DE0203
S2140813A05A605A6822F440725A605A6842F4807248
S2140813B05A60704700C0084008B50B4B6FF0010232
S2140813C0C3F8E4201A6942F480021A61074B084AF7
S2140813D01A611A6842F020021A601A6842F004027B
S2140813E01A60044B984708BD00060E4000C0084027
S2140813F02F2F01009913080082B0264B6FF00102C8
S214081400C3F8E4205A6822F030025A605A685A60D4
S2140814105A6822F00F025A605A685A605A6822F0D0
S214081420C0025A605A6842F0C0025A605A6822F4EB
S21408143060625A605A6842F400625A601A6A120C6D
S21408144012041A621A6A42F02B021A621A6A019287
S2140814501A6842F004021A601A6822F004021A6037
S2140814601A6822F020021A601A6842F010021A60FF
S2140814701A6842F008021A601A6822F008021A600F
S2140814801A6822F080021A601A6842F040021A604F
S21408149002B070470080094070B50F4E0F4D761B9E
S2140814A0B61018BF002405D0013455F8043B9847F9
S2140814B0A642F9D10A4E0B4D00F02EF9761BB6104F
S2140814C018BF002406D0013455F8043B9847A642B6
S2140814D0F9D170BD70BD00BF241708002417080096
S2140814E02C1708002417080070B4860746D0541E28
S2140814F0002A41D0CAB2034602E014F1FF343BD3B7
S21408150003F8012B9D07F8D1032C2ED9CDB245EA56
S21408151005250F2C45EA054519D9264603F110027C
S214081520103E0F2E42F8105C42F80C5C42F8085C3D
S21408153042F8045C02F11002F2D8A4F1100222F07C
S2140815400F0204F00F041032032C13440DD91E4664
S2140815502246043A032A46F8045BFAD8221F22F0E9
S21408156003020432134404F003042CB1C9B21C4429
S21408157003F8011B9C42FBD170BC70471446034617
S214081580C2E700BF40EA010313F0030F70B4034636
S21408159024D0A2B10C78013A1C70013101333CB159
S2140815A06AB111F8014B013A03F8014B002CF7D148
S2140815B02AB100211A4403F8011B9A42FBD170BCD9
S2140815C070470E4651F8045BA5F1013424EA050479
S2140815D014F0803F05D1043A43F8045B032AF0D898
S2140815E0D7E73146D6E700BF024B13B1024800F0F2
S2140815F005B87047000000000916080000230146D9
S2140816001A46184600F01EB838B50A4C0A4D641B30
S214081610A4100AD004F18043013B05EB8305013C86
S21408162055F804399847002CF9D1BDE8384000F041
S2140816307DB800BF3C17080038170800704700BF81
S214081640704700BF2DE9F8432C4D06462868984693
S2140816500F469146FFF7F2FF294B1C68D4F848312D
S214081660002B3ED05A681F2A1CDC02F1010E76B108
S214081670012103EB8204C4F88890D3F888019140CE
S2140816800843022EC3F88801C4F8088123D0023222
S214081690C3F804E0286843F82270FFF7D1FF00205B
S2140816A0BDE8F883174B0BB34FF4C870AFF3008050
S2140816B00346D8B10020D4F848114FF0010E586000
S2140816C019600246C4F84831C3F88801C3F88C018B
S2140816D0002EDCD0CCE7D3F88C010143C3F88C117C
S2140816E0D5E704F5A673C4F84831BBE72868FFF7C2
S2140816F0A7FF4FF0FF30BDE8F88300BF380400208E
S214081700141708000000000048656C6C6F20576FBF
S214081710726C640010000020F8B500BFF8BC08BC66
S2140817209E467047E915080019010800F8B500BF7D
S210081730F8BC08BC9E467047F500080090
S21408173C00093D00AAAAAAAA00A00000FFFFFFFF06
S21408174C00000000FC02002064030020CC030020EC
S21408175C0000000000000000000000000000000070
S21408176C0000000000000000000000000000000060
S21408177C0000000000000000000000000000000050
S21408178C0000000000000000000000000000000040
S21408179C0000000000000000000000000000000030
S2140817AC0000000000000000000000000000000020
S2140817BC0000000000000000000000000000000010
S2140817CC0000000000000000000000000000000000
S2140817DC00000000000000000000000000000000F0
S2140817EC00000000000000000100000000000000DF
S2140817FC0E33CDAB34126DE6ECDE05000B000000A4
S21408180C00000000000000000000000000000000BF
S21408181C00000000000000000000000000000000AF
S21408182C000000000000000000000000000000009F
S21408183C000000000000000000000000000000008F
S210081B6C00000000000000009CA50020FF
S804080000F3
