S012000053414D33585F546573742E73726563A7
S214080000F8A90020650108006101080061010800E0
S2140800106101080061010800610108000000000095
S2140800200000000000000000000000005504080062
S2140800306101080000000000D5040800110508004A
S21408004061010800610108006101080061010800FB
S21408005061010800610108006101080061010800EB
S2140800606101080061010800000000006101080045
S2140800706101080061010800610108000000000035
S2140800800000000061010800610108006101080025
S21408009061010800610108006101080061010800AB
S2140800A06101080000000000610108006101080005
S2140800B0610108006101080061010800610108008B
S2140800C0610108006101080061010800610108007B
S2140800D0610108006101080061010800610108006B
S2140800E0610108006101080061010800610108005B
S2140800F06101080010B5054C237833B9044B13B1D9
S2140801000448AFF300800123237010BD400400208C
S21408011000000000D02508000C4B43B10C4810B571
S2140801200C49AFF300800C48036823B910BD0A4891
S214080130036833B97047094B002BF7D0BDE8104069
S2140801401847064B002BF5D0184700BF00000000E4
S214080150D025080044040020D02508000000000030
S214080160FEE7000008B5114B114A9A4209D00F4B1A
S2140801700F4A03E011681960043304320D498B42B4
S214080180F8D30D4B02E000221A6004330B4A934260
S214080190F9D30B4B23F0604323F07F03094A93609F
S2140801A0094B9847094B9847FEE700BF0000002018
S2140801B0D02508003C04002040040020F8A50020B4
S2140801C00000080000ED00E025220800911B08004A
S2140801D04FF48063204A136002F5007213601F4BC9
S2140801E01B6A13F0807F07D11D4A1C4B1A621B4BF3
S2140801F09B6E13F0010FFAD01A4A184B1A62174B67
S2140802009B6E13F4803FFAD0144A136B23F0030353
S21408021043F001031363114B9B6E13F0080FFAD0DB
S214080220114A0E4B9A620D4B9B6E13F0020FFAD0D2
S21408023011220A4B1A63094B9B6E13F0080FFAD06B
S2140802401222064B1A63054B9B6E13F0080FFAD062
S214080250064A074B1A607047000A0E4000060E4012
S2140802600908370009083701033F272000BD0105A4
S214080270000000203E4B1B6B03F00303032B3FD804
S214080280DFE803F002112D2D3A4B5B6913F0800F5F
S21408029004D04FF40042384B1A6031E04FF4FA426B
S2140802A0354B1A602CE0324B1B6A13F0807F03D064
S2140802B0324A314B1A6023E0314A2F4B1A602C4BD6
S2140802C01B6A03F07003102B05D0202B18D12B4A7D
S2140802D0294B1A6014E02B4A274B1A6010E0244B6F
S2140802E01B6A13F0807F1AD0244A234B1A60204BCF
S2140802F01B6B03F00303022B24D0234A1E4B1A6001
S2140803001B4B1B6B03F07003702B29D0184B1A6B12
S214080310C2F3021218490B68D3400B607047184A9C
S214080320154B1A60124B1B6A03F07003102B05D08E
S214080330202BDCD1114A104B1A60D8E7114A0E4B15
S2140803401A60D4E70A48826AC2F30A420A490B6866
S21408035002FB0333826AD2B2B3FBF2F30B60CFE739
S214080360054A13680949A1FB03135B081360704725
S21408037000060E40101A0E4000000020001BB700B2
S21408038000093D0000127A00001C4E0EABAAAAAA6D
S21408039000F1080343604FF0FF328260C3600361D8
S2140803A000230360704700230361704743685A6858
S2140803B04A6042688A605A6891605960416008617C
S2140803C0036801330360704710B40C68B4F1FF3F4C
S2140803D002D000F1080302E0036904E05B685A688B
S2140803E012689442FAD25A684A6091608B605960E3
S2140803F0086103680133036010BC7047436882686D
S2140804009A60836842685A6003695A68904206D0C0
S214080410002202611A68013A1A60186870478268F2
S2140804205A60F5E703480068006880F3088862B6F3
S21408043000DF00BF08ED00E04FF0807340F8043C92
S21408044040F8081C002340F80C3C40F8202C4038A4
S21408045070470000064B19680868B0E8F00F80F38C
S21408046009884FF0000080F311884EF00D0E704793
S2140804703CA500204FF08052014B1A60704700BF21
S21408048004ED00E0EFF311804FF0A00181F311882E
S2140804907047002008B5034B9847034A1368013392
S2140804A0136008BD850408000400002080F3118846
S2140804B07047000008B5054A1368013B136003B18E
S2140804C008BD0020024B9847FAE700BF040000204A
S2140804D0AD040800EFF309800C4B1A6820E9F00F0A
S2140804E010602DE908404FF0A00080F3118800F056
S2140804F02BFF4FF0000080F31188BDE8084019680C
S2140805000868B0E8F00F80F3098870473CA500201B
S21408051008B54FF08052054B1A60054B9847054BB7
S21408052098470020044B984708BD00BF04ED00E03C
S214080530850408001D100800AD040800064B1B685B
S214080540064AA2FB03239B09013B054A13600722C0
S214080550044B1A60704700BF00000020D34D62109D
S21408056014E000E010E000E010B5094B1A6842F409
S21408057070021A601A6842F070421A60054B984773
S2140805800024054B1C60054B9847204610BD00BF4D
S21408059020ED00E03D0508000400002025040800C2
S2140805A010B40D4B03F108021A600021596049F691
S2140805B0F0700244094CC4F8502749F6FC741951E7
S2140805C049F6F8741951D8609A60054A1368103BC2
S2140805D0136010BC704700BF60040020189D002000
S2140805E00800002010B4134A00E01A461368834235
S2140805F0FBD351685418A04209D041684418A34256
S2140806000AD00360904200D0106010BC7047406863
S214080610014451601046F0E7074CD4F85047A3420F
S21408062006D05B681944416013681B680360E9E7F5
S2140806300460E7E760040020189D002070B50546B2
S214080640224B9847224BD3F850377BB135B110353B
S21408065015F0070F02D025F0070508356A1E49F67B
S214080660FE739A422AD81B4A146804E01A4B984725
S214080670ECE722461C4663689D4202D92368002B95
S214080680F7D1134BD3F850379C4219D0166810365A
S2140806902368136063685B1B202B09D861680F4AC0
S2140806A013685B1A13600E4B98475EB1304670BDF0
S2140806B06019436065600B4B9847EFE70026F2E742
S2140806C00026F0E7084B9847F0E700BFE90F080058
S2140806D0189D002060040020A105080008000020DE
S2140806E025110800E5050800451C080088B138B53E
S2140806F00446A0F11005074B984754F80C1C064A08
S21408070013680B4413602846044B9847044B9847D5
S21408071038BD7047E90F080008000020E505080006
S2140807202511080038B50546054B9847AC6BEB6BAA
S2140807309C4214BF00240124024B9847204638BD2B
S21408074095040800B504080010B50446044B9847FD
S214080750A46BB4FA84F46409024B9847204610BD8B
S21408076095040800B504080010B50446036C5BB988
S21408077003681BB1A36B0133A36310BD4068124B1B
S214080780984700236360F5E76AB91A4680680F4BF6
S2140807909847226CA3681344A36062689342E9D31F
S2140807A02368A360E6E71A46C068084B9847226C99
S2140807B05242E3681344E36021688B42DAD26368E6
S2140807C01A44E260D6E700BF6116080075220800E2
S2140807D038B50346006858B11A6CDC681444DC6007
S2140807E05D68AC4200D3D8600846D968014B984784
S2140807F038BD00BF7522080010B50446194B984747
S21408080002E0A36C013BA364A36C002B0ADD636AB9
S21408081043B104F12400144B98470028F1D0134B39
S2140808209847EEE74FF0FF33A364114B98470D4BFC
S214080830984702E0636C013B6364636C002B0ADD37
S214080840236943B104F11000074B98470028F1D0FC
S214080850064B9847EEE74FF0FF336364044B984720
S21408086010BD00BF9504080079140800A5150800F7
S214080870B504080038B508B30D460446174B984724
S2140808802168E26B236C03FB021060600020A06303
S214080890A160013A02FB0313E3604FF0FF33636481
S2140808A0A36495B923692BB104F110000C4B984743
S2140808B0012807D00B4B9847012038BD0A4B9847AC
S2140808C000BFFDE7094B9847F4E704F11000084D10
S2140808D0A84704F12400A847ECE700BF95040800E1
S2140808E079140800B5040800850408007504080093
S2140808F091030800F8B5F0B10D4617460646502095
S214080900114B98470446C0B105FB06F001300E4B64
S2140809109847206050B1E6632564012120460B4BBA
S214080920984784F84D7054B12046F8BD2046084BC9
S21408093098470024F7E70024F5E70024F3E7054B7B
S214080940984700BFFDE700BF3D0608007508080089
S214080950ED06080085040800F0B585B0019238B1A8
S2140809600E461F46044639B101235BB1002536E022
S214080970384B984700BFFDE7036C0BB90123F4E733
S2140809800023F2E7334B984700BFFDE73A46314667
S2140809902046314B9847636A23B9304B9847012065
S2140809A005B0F0BD04F124002D4B98470128F4D17A
S2140809B02C4B9847F1E7294B98470020F0E702A808
S2140809C0294B9847012515E0002363641CE00023A3
S2140809D0A3641DE02046254B9847254B9847254B92
S2140809E09847A26BE36B9A42D0D3019B002BE2D0C8
S2140809F0002DE4D0194B98471F4B98471D4B984736
S214080A00636CB3F1FF3FDFD0A36CB3F1FF3FDED0DA
S214080A10124B984701A902A8184B984798B9204640
S214080A20174B98470028D5D0019904F11000154BAC
S214080A30984720460D4B98470D4B98470028CED12F
S214080A40084B9847CBE72046084B9847084B9847EB
S214080A500020A5E78504080069070800B504080013
S214080A607914080075040800F9140800F907080046
S214080A702511080095040800E90F08001D15080050
S214080A8025070800D51308002DE9F04150B10E4699
S214080A9015469846044649B101236BB91D4B98473D
S214080AA000BFFDE71B4B984700BFFDE7036C0BB97B
S214080AB00123F2E70023F0E7164B98470746A26B98
S214080AC0E36B9A4206D300243846134B98472046D1
S214080AD0BDE8F081424631462046104B9847A36C45
S214080AE0B3F1FF3F0AD1636A6BB104F124000C4BE3
S214080AF0984750B15DB101242C60E5E7A36C01333B
S214080B00A3640124E0E70124DEE70124DCE70124EE
S214080B10DAE700BF85040800AD0408006907080086
S214080B2079140800F0B585B0019238B10E461F4614
S214080B30044639B101235BB1002553E0484B98477A
S214080B4000BFFDE7036C0BB90123F4E70023F2E7C7
S214080B50434B984700BFFDE7E56831462046414BC2
S214080B609847B7B9A36B013BA363236813B93E4BF9
S214080B709847606023693BB104F110003B4B9847E7
S214080B80012801D13A4B98473A4B9847012005B0BF
S214080B90F0BDE560636A002BF6D004F12400334B01
S214080BA098470028F0D0324B9847EDE7314B9847E6
S214080BB00020ECE702A8304B984701251CE00023EC
S214080BC0636423E00023A36424E02C4B9847606802
S214080BD02B4B9847274B98472BE02046294B98479E
S214080BE0294B9847254B9847A36B002BB4D1019BFC
S214080BF0002BDBD0002DDDD01E4B9847234B9847A3
S214080C001E4B9847636CB3F1FF3FD8D0A36CB3F183
S214080C10FF3FD7D0174B984701A902A81C4B984707
S214080C20B0B920461B4B98470028D6D02368002B1F
S214080C30CBD0019904F12400174B98472046114B56
S214080C409847114B98470028CCD1094B9847C9E7D5
S214080C5020460C4B98470C4B9847002097E700BF58
S214080C6085040800D1070800B5150800791408009F
S214080C7075040800B5040800F9140800950408006F
S214080C80E1150800F907080025110800E90F080013
S214080C901D15080049070800D513080038B504468E
S214080CA00D460F4B9847636CB3F1FF3F0BD0A36C10
S214080CB0B3F1FF3F0AD00B4B9847A36B4BB12046C6
S214080CC0094B984738BD00236364F0E70023A36404
S214080CD0F1E7294604F12400044B9847EFE700BFE4
S214080CE095040800B5040800F9070800351408003C
S214080CF038B50546006B024CA0472846A04738BDC5
S214080D00ED06080070B506460C464C200B4B984777
S214080D10054638B144B12C635CB1B200A521204623
S214080D20074B9847284670BDB000044B98470446C2
S214080D30F1E72846034B98470025F3E73D060800E9
S214080D4061230800ED06080070B5044615460A2219
S214080D5034300B4B9847002384F83D30042D00D9D7
S214080D600425E562A564201D064EB04704F1180068
S214080D70B0472461C5F10505A561646270BD00BF72
S214080D80FD230800A7030800F8B50024042C17D98B
S214080D900F4C04F1640738460E4DA84704F1780650
S214080DA03046A84704F18C00A84704F1A000A847DD
S214080DB004F1B400A847C4F8C870C4F8CC60F8BDFD
S214080DC01420034B00FB0430024B98470134DDE740
S214080DD06CA400209103080010B5104BD3F8D0205F
S214080DE05060D3F8D43098420FD304460B4BD3F850
S214080DF0C800D3F8D0100431094B9847094B1B6834
S214080E009C4201D2074B1C6010BD044BD3F8CC00A3
S214080E10D3F8D0100431024B984710BD6CA40020BC
S214080E20C90308000C0000202DE9F04F83B00C9E83
S214080E30DDF8348048B18B4617469A468146042E1C
S214080E4007D9444B984700BFFDE7424B984700BF79
S214080E50FDE70E991046404B98470446002868D090
S214080E60036B07F18045013D03EB850323F0070577
S214080E7000970F9B32465946384FB8475246494660
S214080E802846374B9847206010F0070F1DD1B8F159
S214080E90000F01D0C8F80040324B9847324BD3F8C1
S214080EA000210132C3F80021D3F8D0308BB12E4B85
S214080EB0D3F80431B3B92C4BD3F8D030DB6A9E4252
S214080EC010D3294BC3F8D0400CE0224B984700BFFC
S214080ED0FDE7254BC3F8D040D3F80031012B01D1EC
S214080EE0224B9847E36A204AD2F80821934202D94F
S214080EF01D4AC2F808311C49D1F80C212264013277
S214080F00C1F80C21D1F81021934201D9C1F810314B
S214080F1003EB83039A00211D13481044144B98478B
S214080F20144B98470124012C06D0204603B0BDE890
S214080F30F08F4FF0FF34F6E70B4BD3F80431002B55
S214080F40F3D0094BD3F8D030DB6A9E42EDD90A4B72
S214080F509847EAE785040800050D0800490D0800CB
S214080F6039040800950408006CA40020890D0800C0
S214080F70AD030800B50408007504080010B584B071
S214080F800023039302930193009382220F4910488B
S214080F90104CA0470446012804D0012C06D08CB17A
S214080FA004B010BD0C4B98470446F6E70B4B984721
S214080FB00B4B0122C3F804210022C3F8D420094BA6
S214080FC09847ECE7054B984700BFFDE794250800CF
S214080FD029130800290E080065170800850408006C
S214080FE06CA4002069050800034AD2F818310133BA
S214080FF0C2F81831704700BF6CA4002010B5044B27
S2140810009847044BD3F8D440034B9847204610BD66
S214081010950408006CA40020B504080038B53C4BBD
S214081020D3F81831002B6CD1394BD3F8D4200132C1
S214081030C3F8D420D3F8D430D3B9354BD3F8C83056
S2140810401B68EBB9324BD3F8C820D3F8CC10C3F8DA
S214081050C810C3F8CC20D3F81C210132C3F81C21D1
S214081060D3F8C8301B687BB94FF0FF32294B1A609B
S214081070274BD3F8D420274B1B689A421DD246E04C
S214081080254B984700BFFDE7214BD3F8C830DB68EF
S214081090DB685A681F4B1A60EAE74FF0FF321D4BB1
S2140810A01A6038BD1B4B1A6038BD03EB83039A00E1
S2140810B0294617481044194B9847154BD3F8C8309B
S2140810C01B68002BE9D0124BD3F8C820D268D46826
S2140810D06268D3F8D4309A42E4D8251D2846104BC7
S2140810E09847A36A1BB104F118000D4B9847E36AAA
S2140810F0074AD2F810219342D7D9054AC2F81031C8
S214081100D3E7034AD2F820310133C2F8203138BD7C
S2140811106CA400200C00002085040800AD0308001D
S214081120FD0308002DE9F041344BD3F818311BB9FC
S214081130334B984700BFFDE7324B98472F4BD3F801
S2140811401821013AC3F81821D3F81831002B52D1C8
S2140811502A4BD3F800313BB30024284BD3F88C3005
S21408116043B3264ED6F89830DD6805F11800DFF848
S214081170A880C0472F1D3846C047EB6AD6F810210E
S214081180934201D9C6F810311C4E03EB830398002E
S214081190394630441C4B9847EA6AD6F8D030DB6AA2
S2140811A09A42DAD30124D8E70024184B98472046F9
S2140811B0BDE8F081114BD3F82031ABB924B90F4BF9
S2140811C0D3F82431012BF0D100220C4BC3F824218C
S2140811D00F4B98470124E8E70E4B9847074AD2F882
S2140811E02031013BC2F82031044BD3F82031002BC4
S2140811F0F2D10124E2E70024D7E700BF6CA4002060
S2140812008504080095040800AD030800B504080026
S214081210750408001D100800FD03080038B530B135
S2140812200C46054639B91E4B984700BFFDE71C4BD0
S214081230984700BFFDE71B4B98472B681C441A4A83
S214081240D2F8D42093420DD9A34214D9164BD3F81A
S214081250D4309C4211D800232C60A3B9134B98476E
S214081260D8B138BDA3420AD80F4BD3F8D4309C4225
S21408127007D80023F0E70023EEE70123ECE7012375
S214081280EAE70123E8E7084BD3F8D0000430084B18
S21408129098472046074B9847E0E7074B9847E0E70C
S2140812A085040800E90F08006CA400202511080032
S2140812B0FD030800D90D08007504080038B5134B5F
S2140812C0D3F814310BB3124B9847104BD3F8A04001
S2140812D0104B9847002CF2D00F4B98470B4CD4F87D
S2140812E0AC30DD68281D0D4B9847D4F80031013B1B
S2140812F0C4F80031D4F81431013BC4F81431084B53
S21408130098472846074B9847D9E738BD6CA400206D
S214081310E90F08002511080095040800FD030800D9
S214081320B5040800F10C080008B5044B9847044BB0
S2140813301B68012BF9D9034B9847F6E7BD1208003E
S2140813406CA4002075040800204BD3F818319BB90C
S21408135010B51E49D1F8103103EB83039A008B5859
S2140813609BB91A4BD3F810315BB1184AD2F8103132
S214081370013BC2F81031ECE70122144BC3F82421D4
S2140813807047134B984700BFFDE70A46D1F810315F
S2140813909900CC18A0001044446864684460194456
S2140813A08800014608300244944209D0074903EBF6
S2140813B083039A000A445368DB68C1F8D03010BD2E
S2140813C06068024A0A445060F0E700BF6CA4002038
S2140813D08504080038B5A8B10C46104DD5F8D010CD
S2140813E018310F4B9847D5F8D00004300D4B984766
S2140813F0B4F1FF3F0AD0094BD3F8D40020440A4B77
S214081400984738BD094B984700BFFDE72846D5F8EA
S214081410D0100431B430064B984738BD6CA4002071
S214081420C9030800FD030800D90D08008504080054
S214081430AD03080038B588B10D460A4CD4F8D0106C
S2140814401831094B9847D4F8D0000430074B984712
S214081450D4F8D4002844064B984738BD054B98471F
S21408146000BFFDE76CA40020AD030800FD030800DC
S214081470D90D08008504080038B5C368DC6834B39D
S21408148004F118052846174B9847174BD3F8183118
S2140814900BBB251D2846134B9847E36A124AD2F819
S2140814A01021934202D9104AC2F8103103EB830385
S2140814B09A0029460C4810440C4B9847E26A0A4B97
S2140814C0D3F8D030DB6A9A420AD2002038BD084BDF
S2140814D0984700BFFDE729460648044B9847EDE7BE
S2140814E0012038BDFD0308006CA40020AD030800E9
S2140814F085040800F8A4002008B538B1054AD2F8D3
S2140815001C110160D2F8D420426008BD024B9847EF
S21408151000BFFDE76CA400208504080038B500B3BA
S2140815200D46044609B31A4B98472B68B3F1FF3F9C
S2140815302AD02168174AD2F81C21914205D0616842
S214081540144AD2F8D420914220D9124AD2F8D4208C
S2140815506168521A93420CD801240F4B98472046CC
S21408156038BD0E4B984700BFFDE70C4B984700BFA9
S214081570FDE7084AD2F8D420521A9B1A2B60204658
S214081580074B98470024E8E70024E6E70124E4E749
S214081590950408006CA40020B5040800850408001B
S2140815A0F91408000122024BC3F82421704700BF33
S2140815B06CA40020014BD3F8D00070476CA4002020
S2140815C0064BD3F804313BB1044BD3F818310BB1B2
S2140815D00220704701207047002070476CA4002046
S2140815E0002835D038B50546C36A1A49D1F8D01050
S2140815F0C96A8B4212D21749D1F8D000C06AC0F126
S2140816000500A8616C6903EB8303980001448C42CB
S21408161005D0104BD3F8D030DB6AEB6238BD2C1DF2
S21408162020460D4B98470B4AD2F8D030DB6AEB625F
S214081630D2F81021934202D9064AC2F8103103EBB9
S21408164083039A00214603481044044B984738BD44
S214081650704700BF6CA40020FD030800AD03080017
S214081660F8B138B50446C16A826C914218D0051D97
S21408167028460C4B9847A36CE362C3F10502A261A7
S214081680094AD2F81021934202D9074AC2F8103103
S21408169003EB83039A00294603481044034B9847F4
S2140816A038BD7047FD0308006CA40020AD03080091
S2140816B0064B1A681368B3FA83F35B09036013B919
S2140816C0D368186870470020704700BF94A50020AC
S2140816D008B54160006191420CD8D21A83699A42D3
S2140816E001D3012008BD011D094B5868094B9847CE
S2140816F0002008BD9A4201D2994206D2011D044B29
S2140817001868044B9847002008BD012008BD00BF94
S21408171094A50020C9030800F8B50D4B98470D4B53
S2140817209B6813B10C4B9847F8BD0A4C04F10C069D
S21408173030460A4FB84704F120052846B8472660C1
S214081740656000220C210520054B9847A060E9E754
S2140817509504080094A50020B50408009103080025
S214081760F508080010B584B00C4B98470C4B9B68DE
S21408177073B10023039302930193042200924FF45B
S214081780827208490848094CA04718B104B010BD31
S2140817900020FAE7064B984700BFFDE71917080030
S2140817A094A50020A0250800691A0800290E08003C
S2140817B08504080030B585B0124CA56805B31C46EC
S2140817C00191029203903BB10023224601A92846C4
S2140817D00D4CA04705B030BD0C4B9847012807D0E4
S2140817E000231A4601A907488068094CA047F1E774
S2140817F00023089A01A903488068054CA047E9E732
S2140818000020E7E794A50020890A0800C11508000B
S214081810590908001E4B1B681A68002A33D070B591
S21408182082B0DA681668DB68DC68251D2846194B1E
S2140818309847636A20469847E369012B0AD0144BF9
S2140818401B681A68002AECD1114A51681160536067
S21408185002B070BDA36933449E4207D26360246118
S21408186029460B4B18680C4B9847E8E7002100916F
S2140818700B4632462046094CA0470028DFD1084BC5
S214081880984700BFFDE7024A5168116053607047E9
S21408189094A50020FD030800C9030800B517080032
S2140818A08504080038B50546084B98470446084B93
S2140818B0586B844205D300232B60054B5C63204697
S2140818C038BD044B984701232B60F6E7FD0F080048
S2140818D094A500201518080070B582B005460E4677
S2140818E0124B1B68DB68DC68201D114B9847E369C0
S2140818F0012B04D0636A2046984702B070BDA169E0
S2140819002B463246294420460A4EB0470128F1D1D4
S214081910002100910B462A462046074DA847002876
S214081920E8D1064B984700BFFDE700BF94A5002006
S214081930FD030800D1160800B5170800850408003E
S21408194070B582B005460E46104B984701A8104B56
S2140819509847019BBBB904460EB9A84209D2291B71
S2140819600C4B98680C4B98470C4B984740B102B004
S21408197070BD0A4B984721462846094B9847F6E714
S214081980084B9847F3E7054B9847F0E7E90F080038
S214081990A518080094A500209D0C0800251108002D
S2140819A0D91808007504080070B586B002A8264B3A
S2140819B09847054610E00499A16131B12B462A469E
S2140819C029442046214CA04706E0214B984700BFF3
S2140819D0FDE720461F4B984700231A4603A91E48D2
S2140819E080681E4CA04700282CD0059C24B163694B
S2140819F013B1201D1A4B9847039B022BDBD0032BF1
S214081A00E7D0002BE8D10499A0690B462A46014482
S214081A1020460E4EB0470128DED1636A2046984716
S214081A20E369012BD8D1A269002100910B460498DE
S214081A30024420460B4CA0470028CDD1044B9847BB
S214081A4000BFFDE706B070BDA5180800D11608004F
S214081A5085040800ED06080094A50020250B08005C
S214081A60FD030800B517080000B583B001A8044BAD
S214081A7098470199034B9847034B9847F6E700BFEA
S214081A80B116080041190800A9190800836BCB4055
S214081A9013F0010F04D1012303FA01F10163704723
S214081AA0012303FA01F141637047000082B06428FD
S214081AB000D964200D4BDB68C3F30B030193019B2D
S214081AC003FB00F00A4B83FB0023C017C0EB631030
S214081AD001908B6803F07F438B60019B23F07F4364
S214081AE08A6813438B6002B0704700BF0042094003
S214081AF01F85EB5182B00F4B1B69C3F3400301935C
S214081B00019B23B90B4B1B69C3F340030193094B95
S214081B10DA6842F0A602DA601B69C3F34003019351
S214081B20019B23B9034B1B69C3F34003019302B01F
S214081B30704700BF0080004000B583B0054B98474B
S214081B400190962101A8044B984710210348044B9E
S214081B509847F6E7FD0F08001D120800000E0E4015
S214081B608D1A080000B583B0054B9847019064218C
S214081B7001A8044B984718210348044B9847F6E7F2
S214081B80FD0F08001D120800000E0E408D1A0800F2
S214081B9000B587B0002405941B4B98471B4B984705
S214081BA01B4B98471B4B98471B4B98471B4B984714
S214081BB01B4B98471B4B9847039402941A4B019368
S214081BC001230093234640F2122221461748184D57
S214081BD0A84703940294174B0193022300932346C5
S214081BE040F2122221461448A847144B984708E0AA
S214081BF0059B01330593059BB3F5FA7FF8D9104B7F
S214081C00984700230593F6E7D101080075020800F7
S214081C10ED1F0800852108008D1C0800491C0800D7
S214081C204120080015210800CCA50020651B0800E7
S214081C30290E0800D0A50020391B08007D0F0800D3
S214081C40F51A0800FEE700000E4B6FF00102C3F815
S214081C50E4200D49D1F8002142F02002C1F8002105
S214081C605A6822F47F425A605A6842F41F425A6001
S214081C705A6922F0FF025A611A6942F001021A6193
S214081C80704700BF00000C4000060E4082B01D4B97
S214081C906FF00102C3F8E4201B49D1F8002142F096
S214081CA04002C1F800215A6822F07C525A605A68ED
S214081CB042F0A8525A605A6942F001025A611A69FB
S214081CC042F002021A611B6B03F001030193019BA9
S214081CD02BB90C4B1B6B03F001030193F9E7094B77
S214081CE01A6A42F07F021A621B6B03F00103019323
S214081CF0019B2BB9034B1B6B03F001030193F9E718
S214081D0002B0704700800C4000060E4030B482B027
S214081D106FF00104C1F8E4408C680194019CD4403B
S214081D2004F001040194019C84F0010404F0010409
S214081D300194019C04B1FEE7A3B90C6801259540FF
S214081D402C430C608C680194019CD44004F0010478
S214081D500194019C84F0010404F001040194019CA0
S214081D60E4B1FEE74C68012595402C434C608C682E
S214081D70D44004F001040194019C04B1FEE7012B51
S214081D8005D10C6F6FF0010595402C400C67022BAF
S214081D9004D10C6F012595402C430C6760B14C6943
S214081DA0012595402C434C618C69D44004F001040D
S214081DB00194019C8CB1FEE70C69012595402C43E3
S214081DC00C618C69D4400194019C84F0010404F0F1
S214081DD001040194019C04B1FEE70C6AD44004F0A7
S214081DE001040194019C04B1FEE780F00100002B79
S214081DF014BF002300F00103A3B1D1F8A00001240A
S214081E0094402043C1F8A000D1F8A81021FA02F2A5
S214081E1002F001020192019A12F0010F00D000238D
S214081E2003B1FEE702B030BC7047000038B5124B6D
S214081E306FF00102C3F8E4201A6942F400621A61DE
S214081E401A6942F480521A6100231A220B4918466E
S214081E500B4CA0470B4D00230F2229461846A047D7
S214081E600023102229461846A04700231822294690
S214081E701846A04738BD00BF00060E4000100E40AA
S214081E800D1D0800000E0E4038B50B4B6FF0010212
S214081E90C3F8E4201A6942F400321A61074D012398
S214081EA00B2229460020064CA04701230A22294671
S214081EB01846A04738BD00BF00060E40000E0E406C
S214081EC00D1D080038B50B4B6FF00102C3F8E4206F
S214081ED01A6942F480021A61074D01231222294624
S214081EE00020064CA0470123112229460020A047BF
S214081EF038BD00BF00060E40000E0E400D1D08003F
S214081F0038B50D4B6FF00102C3F8E4201A6942F0A9
S214081F1010021A6102230F2208490020084CA04725
S214081F20084D0223002229461046A0470223052210
S214081F3029460120A04738BD00060E4000100E4076
S214081F400D1D0800000E0E4038B50D4B6FF001024F
S214081F50C3F8E4201A6942F080721A61094D012319
S214081F601B2229460020084CA04701231A2229468E
S214081F700020A0470123192229461846A04738BD45
S214081F8000060E40000E0E400D1D080010B5084B4A
S214081F906FF00102C3F8E4201A6942F020021A61C1
S214081FA00323022203490120034CA04710BD00BFAB
S214081FB000060E40000E0E400D1D080010B5084B1A
S214081FC06FF00102C3F8E4201A6942F040021A6171
S214081FD00323102203490020034CA04710BD00BF6E
S214081FE000060E4000100E400D1D080008B5074BF1
S214081FF09847074B9847074B9847074B9847074B10
S2140820009847074B9847074B984708BD2D1E08006A
S214082010891E0800C51E0800491F08008D1F0800F5
S214082020BD1F0800011F0800044BDA6D22F00202EB
S214082030DA65DA6E42F00202DA6670470040094056
S21408204070B52E4B6FF00102C3F8E420D3F80021D8
S21408205042F01002C3F80021294C236A23F44033C7
S2140820602362236A2362236A43F002032362236AF5
S21408207043F004032362236A43F008032362636879
S21408208043F001036360636843F0020363606368B8
S21408209043F004036360636843F008036360194908
S2140820A00B6943F4FA730B610B6823F00F030B609C
S2140820B00B6843F004030B600B6843F480730B60F3
S2140820C0114D4FF00F12EA612B6843F480332B60F2
S2140820D0CA610B6843F480330B60A36A43F00103BC
S2140820E0A3620A20094EB04729460A20B047A36AC9
S2140820F043F00103A362064B984770BD00060E40E6
S214082100004009400042094060420940AD1A0800F4
S21408211029200800194A136943F080731361184B85
S2140821201A6842F001021A605A6B22F47F425A6318
S2140821305A6B42F480525A635A6842F001025A6057
S2140821405A6B42F008025A635A6822F002025A6032
S2140821505A6842F470225A605A6822F07F425A60DF
S2140821605A6842F0C0625A605A6822F470225A606E
S2140821705A6842F450225A60704700BF00060E4064
S2140821800080004082B0264B6FF00102C3F8E420BE
S2140821905A6822F030025A605A685A605A6822F022
S2140821A00F025A605A685A605A6822F0C0025A608B
S2140821B05A6842F0C0025A605A6822F460625A604E
S2140821C05A6842F400625A601A6A120C12041A62BA
S2140821D01A6A42F02B021A621A6A01921A6842F0C8
S2140821E004021A601A6822F004021A601A6822F0BA
S2140821F020021A601A6842F010021A601A6842F042
S21408220008021A601A6822F008021A601A6822F091
S21408221080021A601A6842F040021A6002B07047DC
S2140822200080094070B50F4E0F4D761BB61018BFCC
S214082230002405D0013455F8043B9847A642F9D146
S2140822400A4E0B4D00F0B2F9761BB61018BF0024E4
S21408225006D0013455F8043B9847A642F9D170BD1C
S21408226070BD00BFB8250800B8250800C0250800BE
S214082270B8250800844641EA000313F0030349D151
S214082280403A23D30B6803604B6843608B688360CF
S214082290CB68C3600B6903614B6943618B698361D3
S2140822A0CB69C3610B6A03624B6A43628B6A8362BB
S2140822B0CB6AC3620B6B03634B6B43638B6B8363A3
S2140822C0CB6BC36340304031403ADBD230320BD35D
S2140822D00B6803604B6843608B688360CB68C36099
S2140822E010301031103AF3D20C3205D351F8043BB3
S2140822F040F8043B043AF9D2043208D0D2071CBF8F
S21408230011F8013B00F8013B01D30B8803806046B7
S214082310704700BF082A13D38B07B1D010F0030309
S214082320AED0C3F10403D21ADB071CBF11F8013B79
S21408233000F8013BA4D331F8023B20F8023B9FE7A4
S214082340043AD9D3013A11F8013B00F8013BF9D217
S2140823500B7803704B7843708B78837060467047B1
S21408236070B4860746D0541E002A41D0CAB2034627
S21408237002E014F1FF343BD303F8012B9D07F8D194
S214082380032C2ED9CDB245EA05250F2C45EA05457E
S21408239019D9264603F11002103E0F2E42F8105C9B
S2140823A042F80C5C42F8085C42F8045C02F1100241
S2140823B0F2D8A4F1100222F00F0204F00F04103233
S2140823C0032C13440DD91E462246043A032A46F81F
S2140823D0045BFAD8221F22F003020432134404F0E6
S2140823E003042CB1C9B21C4403F8011B9C42FBD160
S2140823F070BC704714460346C2E700BF40EA0103B4
S21408240013F0030F70B4034624D0A2B10C78013A37
S2140824101C70013101333CB16AB111F8014B013A25
S21408242003F8014B002CF7D12AB100211A4403F80F
S214082430011B9A42FBD170BC70470E4651F8045BEC
S214082440A5F1013424EA050414F0803F05D1043AC6
S21408245043F8045B032AF0D8D7E73146D6E700BF2F
S214082460024B13B1024800F005B8704700000000A0
S21408247081240800002301461A46184600F01EB8B4
S21408248038B50A4C0A4D641BA4100AD004F18043E0
S214082490013B05EB8305013C55F804399847002CA9
S2140824A0F9D1BDE8384000F08BB800BFD025080049
S2140824B0CC250800704700BF704700BF2DE9F843D9
S2140824C02C4D0646286898460F469146FFF7F2FFB9
S2140824D0294B1C68D4F84831002B3ED05A681F2A6E
S2140824E01CDC02F1010E76B1012103EB8204C4F86C
S2140824F08890D3F8880191400843022EC3F88801D3
S214082500C4F8088123D00232C3F804E0286843F8E8
S2140825102270FFF7D1FF0020BDE8F883174B0BB3F6
S2140825204FF4C870AFF300800346D8B10020D4F843
S21408253048114FF0010E586019600246C4F8483139
S214082540C3F88801C3F88C01002EDCD0CCE7D3F89A
S2140825508C010143C3F88C11D5E704F5A673C4F8BB
S2140825604831BBE72868FFF7A7FF4FF0FF30BDE804
S214082570F88300BF38040020A825080000000000E3
S2140825802573090925630925750925750925750D16
S2140825900A00000049444C45000000000D0A0000EF
S2140825A0546D72205376630010000020F8B500BF03
S2140825B0F8BC08BC9E46704761240800190108004C
S2140825C0F8B500BFF8BC08BC9E467047F500080082
S2140825D000093D00AAAAAAAA00A00000FFFFFFFF64
S2140825E000000000FC02002064030020CC0300204A
S2140825F000000000000000000000000000000000CE
S21408260000000000000000000000000000000000BD
S21408261000000000000000000000000000000000AD
S214082620000000000000000000000000000000009D
S214082630000000000000000000000000000000008D
S214082640000000000000000000000000000000007D
S214082650000000000000000000000000000000006D
S214082660000000000000000000000000000000005D
S214082670000000000000000000000000000000004D
S214082680000000000000000001000000000000003C
S2140826900E33CDAB34126DE6ECDE05000B00000001
S2140826A0000000000000000000000000000000001D
S2140826B0000000000000000000000000000000000D
S2140826C000000000000000000000000000000000FD
S2140826D000000000000000000000000000000000ED
S210082A000000000000000000D4A5002024
S804080000F3
